{
  "_format": "hh-sol-artifact-1",
  "contractName": "NFTMarketplace",
  "sourceName": "contracts/NFTMarketplace.sol",
  "abi": [
    {
      "inputs": [],
      "stateMutability": "nonpayable",
      "type": "constructor"
    },
    {
      "anonymous": false,
      "inputs": [
        {
          "indexed": true,
          "internalType": "address",
          "name": "owner",
          "type": "address"
        },
        {
          "indexed": true,
          "internalType": "address",
          "name": "approved",
          "type": "address"
        },
        {
          "indexed": true,
          "internalType": "uint256",
          "name": "tokenId",
          "type": "uint256"
        }
      ],
      "name": "Approval",
      "type": "event"
    },
    {
      "anonymous": false,
      "inputs": [
        {
          "indexed": true,
          "internalType": "address",
          "name": "owner",
          "type": "address"
        },
        {
          "indexed": true,
          "internalType": "address",
          "name": "operator",
          "type": "address"
        },
        {
          "indexed": false,
          "internalType": "bool",
          "name": "approved",
          "type": "bool"
        }
      ],
      "name": "ApprovalForAll",
      "type": "event"
    },
    {
      "anonymous": false,
      "inputs": [
        {
          "indexed": false,
          "internalType": "uint256",
          "name": "_fromTokenId",
          "type": "uint256"
        },
        {
          "indexed": false,
          "internalType": "uint256",
          "name": "_toTokenId",
          "type": "uint256"
        }
      ],
      "name": "BatchMetadataUpdate",
      "type": "event"
    },
    {
      "anonymous": false,
      "inputs": [
        {
          "indexed": false,
          "internalType": "uint256",
          "name": "_tokenId",
          "type": "uint256"
        }
      ],
      "name": "MetadataUpdate",
      "type": "event"
    },
    {
      "anonymous": false,
      "inputs": [
        {
          "indexed": true,
          "internalType": "address",
          "name": "from",
          "type": "address"
        },
        {
          "indexed": true,
          "internalType": "address",
          "name": "to",
          "type": "address"
        },
        {
          "indexed": true,
          "internalType": "uint256",
          "name": "tokenId",
          "type": "uint256"
        }
      ],
      "name": "Transfer",
      "type": "event"
    },
    {
      "anonymous": false,
      "inputs": [
        {
          "indexed": true,
          "internalType": "uint256",
          "name": "tokenId",
          "type": "uint256"
        },
        {
          "indexed": false,
          "internalType": "address",
          "name": "seller",
          "type": "address"
        },
        {
          "indexed": false,
          "internalType": "address",
          "name": "owner",
          "type": "address"
        },
        {
          "indexed": false,
          "internalType": "uint256",
          "name": "price",
          "type": "uint256"
        },
        {
          "indexed": false,
          "internalType": "bool",
          "name": "sold",
          "type": "bool"
        }
      ],
      "name": "idMarketItemCreated",
      "type": "event"
    },
    {
      "inputs": [
        {
          "internalType": "address",
          "name": "to",
          "type": "address"
        },
        {
          "internalType": "uint256",
          "name": "tokenId",
          "type": "uint256"
        }
      ],
      "name": "approve",
      "outputs": [],
      "stateMutability": "nonpayable",
      "type": "function"
    },
    {
      "inputs": [
        {
          "internalType": "address",
          "name": "owner",
          "type": "address"
        }
      ],
      "name": "balanceOf",
      "outputs": [
        {
          "internalType": "uint256",
          "name": "",
          "type": "uint256"
        }
      ],
      "stateMutability": "view",
      "type": "function"
    },
    {
      "inputs": [
        {
          "internalType": "uint256",
          "name": "tokenId",
          "type": "uint256"
        }
      ],
      "name": "createMarketSale",
      "outputs": [],
      "stateMutability": "payable",
      "type": "function"
    },
    {
      "inputs": [
        {
          "internalType": "string",
          "name": "tokenURI",
          "type": "string"
        },
        {
          "internalType": "uint256",
          "name": "price",
          "type": "uint256"
        }
      ],
      "name": "createToken",
      "outputs": [
        {
          "internalType": "uint256",
          "name": "",
          "type": "uint256"
        }
      ],
      "stateMutability": "payable",
      "type": "function"
    },
    {
      "inputs": [],
      "name": "fetchItemsListed",
      "outputs": [
        {
          "components": [
            {
              "internalType": "uint256",
              "name": "tokenId",
              "type": "uint256"
            },
            {
              "internalType": "address payable",
              "name": "seller",
              "type": "address"
            },
            {
              "internalType": "address payable",
              "name": "owner",
              "type": "address"
            },
            {
              "internalType": "uint256",
              "name": "price",
              "type": "uint256"
            },
            {
              "internalType": "bool",
              "name": "sold",
              "type": "bool"
            }
          ],
          "internalType": "struct NFTMarketplace.MarketItem[]",
          "name": "",
          "type": "tuple[]"
        }
      ],
      "stateMutability": "view",
      "type": "function"
    },
    {
      "inputs": [],
      "name": "fetchListingPrice",
      "outputs": [
        {
          "internalType": "uint256",
          "name": "",
          "type": "uint256"
        }
      ],
      "stateMutability": "view",
      "type": "function"
    },
    {
      "inputs": [],
      "name": "fetchMarketItem",
      "outputs": [
        {
          "components": [
            {
              "internalType": "uint256",
              "name": "tokenId",
              "type": "uint256"
            },
            {
              "internalType": "address payable",
              "name": "seller",
              "type": "address"
            },
            {
              "internalType": "address payable",
              "name": "owner",
              "type": "address"
            },
            {
              "internalType": "uint256",
              "name": "price",
              "type": "uint256"
            },
            {
              "internalType": "bool",
              "name": "sold",
              "type": "bool"
            }
          ],
          "internalType": "struct NFTMarketplace.MarketItem[]",
          "name": "",
          "type": "tuple[]"
        }
      ],
      "stateMutability": "view",
      "type": "function"
    },
    {
      "inputs": [],
      "name": "fetchMyNFT",
      "outputs": [
        {
          "components": [
            {
              "internalType": "uint256",
              "name": "tokenId",
              "type": "uint256"
            },
            {
              "internalType": "address payable",
              "name": "seller",
              "type": "address"
            },
            {
              "internalType": "address payable",
              "name": "owner",
              "type": "address"
            },
            {
              "internalType": "uint256",
              "name": "price",
              "type": "uint256"
            },
            {
              "internalType": "bool",
              "name": "sold",
              "type": "bool"
            }
          ],
          "internalType": "struct NFTMarketplace.MarketItem[]",
          "name": "",
          "type": "tuple[]"
        }
      ],
      "stateMutability": "view",
      "type": "function"
    },
    {
      "inputs": [
        {
          "internalType": "uint256",
          "name": "tokenId",
          "type": "uint256"
        }
      ],
      "name": "getApproved",
      "outputs": [
        {
          "internalType": "address",
          "name": "",
          "type": "address"
        }
      ],
      "stateMutability": "view",
      "type": "function"
    },
    {
      "inputs": [
        {
          "internalType": "address",
          "name": "owner",
          "type": "address"
        },
        {
          "internalType": "address",
          "name": "operator",
          "type": "address"
        }
      ],
      "name": "isApprovedForAll",
      "outputs": [
        {
          "internalType": "bool",
          "name": "",
          "type": "bool"
        }
      ],
      "stateMutability": "view",
      "type": "function"
    },
    {
      "inputs": [],
      "name": "name",
      "outputs": [
        {
          "internalType": "string",
          "name": "",
          "type": "string"
        }
      ],
      "stateMutability": "view",
      "type": "function"
    },
    {
      "inputs": [
        {
          "internalType": "uint256",
          "name": "tokenId",
          "type": "uint256"
        }
      ],
      "name": "ownerOf",
      "outputs": [
        {
          "internalType": "address",
          "name": "",
          "type": "address"
        }
      ],
      "stateMutability": "view",
      "type": "function"
    },
    {
      "inputs": [
        {
          "internalType": "uint256",
          "name": "tokenId",
          "type": "uint256"
        },
        {
          "internalType": "uint256",
          "name": "price",
          "type": "uint256"
        }
      ],
      "name": "reSellToken",
      "outputs": [],
      "stateMutability": "payable",
      "type": "function"
    },
    {
      "inputs": [
        {
          "internalType": "address",
          "name": "from",
          "type": "address"
        },
        {
          "internalType": "address",
          "name": "to",
          "type": "address"
        },
        {
          "internalType": "uint256",
          "name": "tokenId",
          "type": "uint256"
        }
      ],
      "name": "safeTransferFrom",
      "outputs": [],
      "stateMutability": "nonpayable",
      "type": "function"
    },
    {
      "inputs": [
        {
          "internalType": "address",
          "name": "from",
          "type": "address"
        },
        {
          "internalType": "address",
          "name": "to",
          "type": "address"
        },
        {
          "internalType": "uint256",
          "name": "tokenId",
          "type": "uint256"
        },
        {
          "internalType": "bytes",
          "name": "data",
          "type": "bytes"
        }
      ],
      "name": "safeTransferFrom",
      "outputs": [],
      "stateMutability": "nonpayable",
      "type": "function"
    },
    {
      "inputs": [
        {
          "internalType": "address",
          "name": "operator",
          "type": "address"
        },
        {
          "internalType": "bool",
          "name": "approved",
          "type": "bool"
        }
      ],
      "name": "setApprovalForAll",
      "outputs": [],
      "stateMutability": "nonpayable",
      "type": "function"
    },
    {
      "inputs": [
        {
          "internalType": "bytes4",
          "name": "interfaceId",
          "type": "bytes4"
        }
      ],
      "name": "supportsInterface",
      "outputs": [
        {
          "internalType": "bool",
          "name": "",
          "type": "bool"
        }
      ],
      "stateMutability": "view",
      "type": "function"
    },
    {
      "inputs": [],
      "name": "symbol",
      "outputs": [
        {
          "internalType": "string",
          "name": "",
          "type": "string"
        }
      ],
      "stateMutability": "view",
      "type": "function"
    },
    {
      "inputs": [],
      "name": "test",
      "outputs": [
        {
          "internalType": "uint256",
          "name": "",
          "type": "uint256"
        }
      ],
      "stateMutability": "pure",
      "type": "function"
    },
    {
      "inputs": [
        {
          "internalType": "uint256",
          "name": "tokenId",
          "type": "uint256"
        }
      ],
      "name": "tokenURI",
      "outputs": [
        {
          "internalType": "string",
          "name": "",
          "type": "string"
        }
      ],
      "stateMutability": "view",
      "type": "function"
    },
    {
      "inputs": [
        {
          "internalType": "address",
          "name": "from",
          "type": "address"
        },
        {
          "internalType": "address",
          "name": "to",
          "type": "address"
        },
        {
          "internalType": "uint256",
          "name": "tokenId",
          "type": "uint256"
        }
      ],
      "name": "transferFrom",
      "outputs": [],
      "stateMutability": "nonpayable",
      "type": "function"
    },
    {
      "inputs": [
        {
          "internalType": "uint256",
          "name": "_listingPrice",
          "type": "uint256"
        }
      ],
      "name": "updateListingPrice",
      "outputs": [],
      "stateMutability": "payable",
      "type": "function"
    }
  ],
  "bytecode": "0x60806040526608e1bc9bf040006009553480156200001c57600080fd5b506040518060400160405280601381526020017f4e4654204d657461766572736520546f6b656e000000000000000000000000008152506040518060400160405280600581526020017f4d594e465400000000000000000000000000000000000000000000000000000081525081600090816200009a919062000355565b508060019081620000ac919062000355565b5050503373ffffffffffffffffffffffffffffffffffffffff16600a60009054906101000a905050506200043c565b600081519050919050565b7f4e487b7100000000000000000000000000000000000000000000000000000000600052604160045260246000fd5b7f4e487b7100000000000000000000000000000000000000000000000000000000600052602260045260246000fd5b600060028204905060018216806200015d57607f821691505b60208210810362000173576200017262000115565b5b50919050565b60008190508160005260206000209050919050565b60006020601f8301049050919050565b600082821b905092915050565b600060088302620001dd7fffffffffffffffffffffffffffffffffffffffffffffffffffffffffffffffff826200019e565b620001e986836200019e565b95508019841693508086168417925050509392505050565b6000819050919050565b6000819050919050565b600062000236620002306200022a8462000201565b6200020b565b62000201565b9050919050565b6000819050919050565b620002528362000215565b6200026a62000261826200023d565b848454620001ab565b825550505050565b600090565b6200028162000272565b6200028e81848462000247565b505050565b5b81811015620002b657620002aa60008262000277565b60018101905062000294565b5050565b601f8211156200030557620002cf8162000179565b620002da846200018e565b81016020851015620002ea578190505b62000302620002f9856200018e565b83018262000293565b50505b505050565b600082821c905092915050565b60006200032a600019846008026200030a565b1980831691505092915050565b600062000345838362000317565b9150826002028217905092915050565b6200036082620000db565b67ffffffffffffffff8111156200037c576200037b620000e6565b5b62000388825462000144565b62000395828285620002ba565b600060209050601f831160018114620003cd5760008415620003b8578287015190505b620003c4858262000337565b86555062000434565b601f198416620003dd8662000179565b60005b828110156200040757848901518255600182019150602085019450602081019050620003e0565b8683101562000427578489015162000423601f89168262000317565b8355505b6001600288020188555050505b505050505050565b61430f806200044c6000396000f3fe6080604052600436106101355760003560e01c806385535b25116100ab578063b88d4fde1161006f578063b88d4fde14610411578063be9af5361461043a578063c18763f714610456578063c87b56dd14610481578063e985e9c5146104be578063f8a8fd6d146104fb57610135565b806385535b251461035a5780638fafd0211461037657806395d89b41146103a1578063a22cb465146103cc578063ae677aa3146103f557610135565b806342842e0e116100fd57806342842e0e1461023157806345f8fa801461025a57806350ad68c6146102855780636352211e146102b057806370a08231146102ed57806372b3b6201461032a57610135565b806301ffc9a71461013a57806306fdde0314610177578063081812fc146101a2578063095ea7b3146101df57806323b872dd14610208575b600080fd5b34801561014657600080fd5b50610161600480360381019061015c9190612bd3565b610526565b60405161016e9190612c1b565b60405180910390f35b34801561018357600080fd5b5061018c610587565b6040516101999190612cc6565b60405180910390f35b3480156101ae57600080fd5b506101c960048036038101906101c49190612d1e565b610619565b6040516101d69190612d8c565b60405180910390f35b3480156101eb57600080fd5b5061020660048036038101906102019190612dd3565b61065f565b005b34801561021457600080fd5b5061022f600480360381019061022a9190612e13565b610776565b005b34801561023d57600080fd5b5061025860048036038101906102539190612e13565b6107d6565b005b34801561026657600080fd5b5061026f6107f6565b60405161027c9190612fbc565b60405180910390f35b34801561029157600080fd5b5061029a610ae2565b6040516102a79190612fed565b60405180910390f35b3480156102bc57600080fd5b506102d760048036038101906102d29190612d1e565b610aec565b6040516102e49190612d8c565b60405180910390f35b3480156102f957600080fd5b50610314600480360381019061030f9190613008565b610b72565b6040516103219190612fed565b60405180910390f35b610344600480360381019061033f919061316a565b610c29565b6040516103519190612fed565b60405180910390f35b610374600480360381019061036f91906131c6565b610c6b565b005b34801561038257600080fd5b5061038b610e60565b6040516103989190612fbc565b60405180910390f35b3480156103ad57600080fd5b506103b66110c8565b6040516103c39190612cc6565b60405180910390f35b3480156103d857600080fd5b506103f360048036038101906103ee9190613232565b61115a565b005b61040f600480360381019061040a9190612d1e565b611170565b005b34801561041d57600080fd5b5061043860048036038101906104339190613313565b61120a565b005b610454600480360381019061044f9190612d1e565b61126c565b005b34801561046257600080fd5b5061046b6114a4565b6040516104789190612fbc565b60405180910390f35b34801561048d57600080fd5b506104a860048036038101906104a39190612d1e565b611790565b6040516104b59190612cc6565b60405180910390f35b3480156104ca57600080fd5b506104e560048036038101906104e09190613396565b6118a2565b6040516104f29190612c1b565b60405180910390f35b34801561050757600080fd5b50610510611936565b60405161051d9190612fed565b60405180910390f35b6000634906490660e01b7bffffffffffffffffffffffffffffffffffffffffffffffffffffffff1916827bffffffffffffffffffffffffffffffffffffffffffffffffffffffff19161480610580575061057f82611944565b5b9050919050565b60606000805461059690613405565b80601f01602080910402602001604051908101604052809291908181526020018280546105c290613405565b801561060f5780601f106105e45761010080835404028352916020019161060f565b820191906000526020600020905b8154815290600101906020018083116105f257829003601f168201915b5050505050905090565b600061062482611a26565b6004600083815260200190815260200160002060009054906101000a900473ffffffffffffffffffffffffffffffffffffffff169050919050565b600061066a82610aec565b90508073ffffffffffffffffffffffffffffffffffffffff168373ffffffffffffffffffffffffffffffffffffffff16036106da576040517f08c379a00000000000000000000000000000000000000000000000000000000081526004016106d1906134a8565b60405180910390fd5b8073ffffffffffffffffffffffffffffffffffffffff166106f9611a71565b73ffffffffffffffffffffffffffffffffffffffff161480610728575061072781610722611a71565b6118a2565b5b610767576040517f08c379a000000000000000000000000000000000000000000000000000000000815260040161075e9061353a565b60405180910390fd5b6107718383611a79565b505050565b610787610781611a71565b82611b32565b6107c6576040517f08c379a00000000000000000000000000000000000000000000000000000000081526004016107bd906135cc565b60405180910390fd5b6107d1838383611bc7565b505050565b6107f18383836040518060200160405280600081525061120a565b505050565b606060006108046007611ec0565b905060008060005b838110156108ac573373ffffffffffffffffffffffffffffffffffffffff16600b600060018461083c919061361b565b815260200190815260200160002060010160009054906101000a900473ffffffffffffffffffffffffffffffffffffffff1673ffffffffffffffffffffffffffffffffffffffff160361089957600183610896919061361b565b92505b80806108a49061364f565b91505061080c565b5060008267ffffffffffffffff8111156108c9576108c861303f565b5b60405190808252806020026020018201604052801561090257816020015b6108ef612b0a565b8152602001906001900390816108e75790505b50905060005b84811015610ad7573373ffffffffffffffffffffffffffffffffffffffff16600b6000600184610938919061361b565b815260200190815260200160002060010160009054906101000a900473ffffffffffffffffffffffffffffffffffffffff1673ffffffffffffffffffffffffffffffffffffffff1603610ac4576000600182610994919061361b565b90506000600b60008381526020019081526020016000209050806040518060a0016040529081600082015481526020016001820160009054906101000a900473ffffffffffffffffffffffffffffffffffffffff1673ffffffffffffffffffffffffffffffffffffffff1673ffffffffffffffffffffffffffffffffffffffff1681526020016002820160009054906101000a900473ffffffffffffffffffffffffffffffffffffffff1673ffffffffffffffffffffffffffffffffffffffff1673ffffffffffffffffffffffffffffffffffffffff168152602001600382015481526020016004820160009054906101000a900460ff161515151581525050848681518110610aa757610aa6613697565b5b6020026020010181905250600185610abf919061361b565b945050505b8080610acf9061364f565b915050610908565b508094505050505090565b6000600954905090565b600080610af883611ece565b9050600073ffffffffffffffffffffffffffffffffffffffff168173ffffffffffffffffffffffffffffffffffffffff1603610b69576040517f08c379a0000000000000000000000000000000000000000000000000000000008152600401610b6090613712565b60405180910390fd5b80915050919050565b60008073ffffffffffffffffffffffffffffffffffffffff168273ffffffffffffffffffffffffffffffffffffffff1603610be2576040517f08c379a0000000000000000000000000000000000000000000000000000000008152600401610bd9906137a4565b60405180910390fd5b600360008373ffffffffffffffffffffffffffffffffffffffff1673ffffffffffffffffffffffffffffffffffffffff168152602001908152602001600020549050919050565b6000610c356007611f0b565b6000610c416007611ec0565b9050610c4d3382611f21565b610c57818561213e565b610c6181846121e2565b8091505092915050565b3373ffffffffffffffffffffffffffffffffffffffff16600b600084815260200190815260200160002060020160009054906101000a900473ffffffffffffffffffffffffffffffffffffffff1673ffffffffffffffffffffffffffffffffffffffff1614610d0f576040517f08c379a0000000000000000000000000000000000000000000000000000000008152600401610d0690613836565b60405180910390fd5b6009543414610d53576040517f08c379a0000000000000000000000000000000000000000000000000000000008152600401610d4a906138c8565b60405180910390fd5b6000600b600084815260200190815260200160002060040160006101000a81548160ff02191690831515021790555080600b60008481526020019081526020016000206003018190555033600b600084815260200190815260200160002060010160006101000a81548173ffffffffffffffffffffffffffffffffffffffff021916908373ffffffffffffffffffffffffffffffffffffffff16021790555030600b600084815260200190815260200160002060020160006101000a81548173ffffffffffffffffffffffffffffffffffffffff021916908373ffffffffffffffffffffffffffffffffffffffff160217905550610e5160086123e5565b610e5c333084611bc7565b5050565b60606000610e6e6007611ec0565b90506000610e7c6008611ec0565b610e866007611ec0565b610e9091906138e8565b90506000808267ffffffffffffffff811115610eaf57610eae61303f565b5b604051908082528060200260200182016040528015610ee857816020015b610ed5612b0a565b815260200190600190039081610ecd5790505b50905060005b848110156110bd573073ffffffffffffffffffffffffffffffffffffffff16600b6000600184610f1e919061361b565b815260200190815260200160002060020160009054906101000a900473ffffffffffffffffffffffffffffffffffffffff1673ffffffffffffffffffffffffffffffffffffffff16036110aa576000600182610f7a919061361b565b90506000600b60008381526020019081526020016000209050806040518060a0016040529081600082015481526020016001820160009054906101000a900473ffffffffffffffffffffffffffffffffffffffff1673ffffffffffffffffffffffffffffffffffffffff1673ffffffffffffffffffffffffffffffffffffffff1681526020016002820160009054906101000a900473ffffffffffffffffffffffffffffffffffffffff1673ffffffffffffffffffffffffffffffffffffffff1673ffffffffffffffffffffffffffffffffffffffff168152602001600382015481526020016004820160009054906101000a900460ff16151515158152505084868151811061108d5761108c613697565b5b60200260200101819052506001856110a5919061361b565b945050505b80806110b59061364f565b915050610eee565b508094505050505090565b6060600180546110d790613405565b80601f016020809104026020016040519081016040528092919081815260200182805461110390613405565b80156111505780601f1061112557610100808354040283529160200191611150565b820191906000526020600020905b81548152906001019060200180831161113357829003601f168201915b5050505050905090565b61116c611165611a71565b8383612441565b5050565b600a60009054906101000a900473ffffffffffffffffffffffffffffffffffffffff1673ffffffffffffffffffffffffffffffffffffffff163373ffffffffffffffffffffffffffffffffffffffff1614611200576040517f08c379a00000000000000000000000000000000000000000000000000000000081526004016111f79061398e565b60405180910390fd5b8060098190555050565b61121b611215611a71565b83611b32565b61125a576040517f08c379a0000000000000000000000000000000000000000000000000000000008152600401611251906135cc565b60405180910390fd5b611266848484846125ad565b50505050565b6000600b60008381526020019081526020016000206003015490508034146112c9576040517f08c379a00000000000000000000000000000000000000000000000000000000081526004016112c090613a20565b60405180910390fd5b33600b600084815260200190815260200160002060020160006101000a81548173ffffffffffffffffffffffffffffffffffffffff021916908373ffffffffffffffffffffffffffffffffffffffff1602179055506001600b600084815260200190815260200160002060040160006101000a81548160ff0219169083151502179055506000600b600084815260200190815260200160002060020160006101000a81548173ffffffffffffffffffffffffffffffffffffffff021916908373ffffffffffffffffffffffffffffffffffffffff1602179055506113ad6008611f0b565b6113b8303384611bc7565b600a60009054906101000a900473ffffffffffffffffffffffffffffffffffffffff1673ffffffffffffffffffffffffffffffffffffffff166108fc6009549081150290604051600060405180830381858888f19350505050158015611422573d6000803e3d6000fd5b50600b600083815260200190815260200160002060010160009054906101000a900473ffffffffffffffffffffffffffffffffffffffff1673ffffffffffffffffffffffffffffffffffffffff166108fc349081150290604051600060405180830381858888f1935050505015801561149f573d6000803e3d6000fd5b505050565b606060006114b26007611ec0565b905060008060005b8381101561155a573373ffffffffffffffffffffffffffffffffffffffff16600b60006001846114ea919061361b565b815260200190815260200160002060020160009054906101000a900473ffffffffffffffffffffffffffffffffffffffff1673ffffffffffffffffffffffffffffffffffffffff160361154757600183611544919061361b565b92505b80806115529061364f565b9150506114ba565b5060008267ffffffffffffffff8111156115775761157661303f565b5b6040519080825280602002602001820160405280156115b057816020015b61159d612b0a565b8152602001906001900390816115955790505b50905060005b84811015611785573373ffffffffffffffffffffffffffffffffffffffff16600b60006001846115e6919061361b565b815260200190815260200160002060020160009054906101000a900473ffffffffffffffffffffffffffffffffffffffff1673ffffffffffffffffffffffffffffffffffffffff1603611772576000600182611642919061361b565b90506000600b60008381526020019081526020016000209050806040518060a0016040529081600082015481526020016001820160009054906101000a900473ffffffffffffffffffffffffffffffffffffffff1673ffffffffffffffffffffffffffffffffffffffff1673ffffffffffffffffffffffffffffffffffffffff1681526020016002820160009054906101000a900473ffffffffffffffffffffffffffffffffffffffff1673ffffffffffffffffffffffffffffffffffffffff1673ffffffffffffffffffffffffffffffffffffffff168152602001600382015481526020016004820160009054906101000a900460ff16151515158152505084868151811061175557611754613697565b5b602002602001018190525060018561176d919061361b565b945050505b808061177d9061364f565b9150506115b6565b508094505050505090565b606061179b82611a26565b60006006600084815260200190815260200160002080546117bb90613405565b80601f01602080910402602001604051908101604052809291908181526020018280546117e790613405565b80156118345780601f1061180957610100808354040283529160200191611834565b820191906000526020600020905b81548152906001019060200180831161181757829003601f168201915b505050505090506000611845612609565b9050600081510361185a57819250505061189d565b60008251111561188f578082604051602001611877929190613a7c565b6040516020818303038152906040529250505061189d565b61189884612620565b925050505b919050565b6000600560008473ffffffffffffffffffffffffffffffffffffffff1673ffffffffffffffffffffffffffffffffffffffff16815260200190815260200160002060008373ffffffffffffffffffffffffffffffffffffffff1673ffffffffffffffffffffffffffffffffffffffff16815260200190815260200160002060009054906101000a900460ff16905092915050565b600080600a90508091505090565b60007f80ac58cd000000000000000000000000000000000000000000000000000000007bffffffffffffffffffffffffffffffffffffffffffffffffffffffff1916827bffffffffffffffffffffffffffffffffffffffffffffffffffffffff19161480611a0f57507f5b5e139f000000000000000000000000000000000000000000000000000000007bffffffffffffffffffffffffffffffffffffffffffffffffffffffff1916827bffffffffffffffffffffffffffffffffffffffffffffffffffffffff1916145b80611a1f5750611a1e82612688565b5b9050919050565b611a2f816126f2565b611a6e576040517f08c379a0000000000000000000000000000000000000000000000000000000008152600401611a6590613712565b60405180910390fd5b50565b600033905090565b816004600083815260200190815260200160002060006101000a81548173ffffffffffffffffffffffffffffffffffffffff021916908373ffffffffffffffffffffffffffffffffffffffff160217905550808273ffffffffffffffffffffffffffffffffffffffff16611aec83610aec565b73ffffffffffffffffffffffffffffffffffffffff167f8c5be1e5ebec7d5bd14f71427d1e84f3dd0314c0f7b2291e5b200ac8c7c3b92560405160405180910390a45050565b600080611b3e83610aec565b90508073ffffffffffffffffffffffffffffffffffffffff168473ffffffffffffffffffffffffffffffffffffffff161480611b805750611b7f81856118a2565b5b80611bbe57508373ffffffffffffffffffffffffffffffffffffffff16611ba684610619565b73ffffffffffffffffffffffffffffffffffffffff16145b91505092915050565b8273ffffffffffffffffffffffffffffffffffffffff16611be782610aec565b73ffffffffffffffffffffffffffffffffffffffff1614611c3d576040517f08c379a0000000000000000000000000000000000000000000000000000000008152600401611c3490613b12565b60405180910390fd5b600073ffffffffffffffffffffffffffffffffffffffff168273ffffffffffffffffffffffffffffffffffffffff1603611cac576040517f08c379a0000000000000000000000000000000000000000000000000000000008152600401611ca390613ba4565b60405180910390fd5b611cb98383836001612733565b8273ffffffffffffffffffffffffffffffffffffffff16611cd982610aec565b73ffffffffffffffffffffffffffffffffffffffff1614611d2f576040517f08c379a0000000000000000000000000000000000000000000000000000000008152600401611d2690613b12565b60405180910390fd5b6004600082815260200190815260200160002060006101000a81549073ffffffffffffffffffffffffffffffffffffffff02191690556001600360008573ffffffffffffffffffffffffffffffffffffffff1673ffffffffffffffffffffffffffffffffffffffff168152602001908152602001600020600082825403925050819055506001600360008473ffffffffffffffffffffffffffffffffffffffff1673ffffffffffffffffffffffffffffffffffffffff16815260200190815260200160002060008282540192505081905550816002600083815260200190815260200160002060006101000a81548173ffffffffffffffffffffffffffffffffffffffff021916908373ffffffffffffffffffffffffffffffffffffffff160217905550808273ffffffffffffffffffffffffffffffffffffffff168473ffffffffffffffffffffffffffffffffffffffff167fddf252ad1be2c89b69c2b068fc378daa952ba7f163c4a11628f55a4df523b3ef60405160405180910390a4611ebb8383836001612739565b505050565b600081600001549050919050565b60006002600083815260200190815260200160002060009054906101000a900473ffffffffffffffffffffffffffffffffffffffff169050919050565b6001816000016000828254019250508190555050565b600073ffffffffffffffffffffffffffffffffffffffff168273ffffffffffffffffffffffffffffffffffffffff1603611f90576040517f08c379a0000000000000000000000000000000000000000000000000000000008152600401611f8790613c10565b60405180910390fd5b611f99816126f2565b15611fd9576040517f08c379a0000000000000000000000000000000000000000000000000000000008152600401611fd090613c7c565b60405180910390fd5b611fe7600083836001612733565b611ff0816126f2565b15612030576040517f08c379a000000000000000000000000000000000000000000000000000000000815260040161202790613c7c565b60405180910390fd5b6001600360008473ffffffffffffffffffffffffffffffffffffffff1673ffffffffffffffffffffffffffffffffffffffff16815260200190815260200160002060008282540192505081905550816002600083815260200190815260200160002060006101000a81548173ffffffffffffffffffffffffffffffffffffffff021916908373ffffffffffffffffffffffffffffffffffffffff160217905550808273ffffffffffffffffffffffffffffffffffffffff16600073ffffffffffffffffffffffffffffffffffffffff167fddf252ad1be2c89b69c2b068fc378daa952ba7f163c4a11628f55a4df523b3ef60405160405180910390a461213a600083836001612739565b5050565b612147826126f2565b612186576040517f08c379a000000000000000000000000000000000000000000000000000000000815260040161217d90613d0e565b60405180910390fd5b806006600084815260200190815260200160002090816121a69190613eda565b507ff8e1a15aba9398e019f0b49df1a4fde98ee17ae345cb5f6b5e2c27f5033e8ce7826040516121d69190612fed565b60405180910390a15050565b60008111612225576040517f08c379a000000000000000000000000000000000000000000000000000000000815260040161221c90613ff8565b60405180910390fd5b6009543414612269576040517f08c379a0000000000000000000000000000000000000000000000000000000008152600401612260906138c8565b60405180910390fd5b6040518060a001604052808381526020013373ffffffffffffffffffffffffffffffffffffffff1681526020013073ffffffffffffffffffffffffffffffffffffffff16815260200182815260200160001515815250600b60008481526020019081526020016000206000820151816000015560208201518160010160006101000a81548173ffffffffffffffffffffffffffffffffffffffff021916908373ffffffffffffffffffffffffffffffffffffffff16021790555060408201518160020160006101000a81548173ffffffffffffffffffffffffffffffffffffffff021916908373ffffffffffffffffffffffffffffffffffffffff1602179055506060820151816003015560808201518160040160006101000a81548160ff0219169083151502179055509050506123a2333084611bc7565b817fdebdb32cb5230ab727c9c361b16fdb2015df225c10e6a3e7f60ecd5dc5be451633308460006040516123d99493929190614018565b60405180910390a25050565b60008160000154905060008111612431576040517f08c379a0000000000000000000000000000000000000000000000000000000008152600401612428906140a9565b60405180910390fd5b6001810382600001819055505050565b8173ffffffffffffffffffffffffffffffffffffffff168373ffffffffffffffffffffffffffffffffffffffff16036124af576040517f08c379a00000000000000000000000000000000000000000000000000000000081526004016124a690614115565b60405180910390fd5b80600560008573ffffffffffffffffffffffffffffffffffffffff1673ffffffffffffffffffffffffffffffffffffffff16815260200190815260200160002060008473ffffffffffffffffffffffffffffffffffffffff1673ffffffffffffffffffffffffffffffffffffffff16815260200190815260200160002060006101000a81548160ff0219169083151502179055508173ffffffffffffffffffffffffffffffffffffffff168373ffffffffffffffffffffffffffffffffffffffff167f17307eab39ab6107e8899845ad3d59bd9653f200f220920489ca2b5937696c31836040516125a09190612c1b565b60405180910390a3505050565b6125b8848484611bc7565b6125c48484848461273f565b612603576040517f08c379a00000000000000000000000000000000000000000000000000000000081526004016125fa906141a7565b60405180910390fd5b50505050565b606060405180602001604052806000815250905090565b606061262b82611a26565b6000612635612609565b905060008151116126555760405180602001604052806000815250612680565b8061265f846128c6565b604051602001612670929190613a7c565b6040516020818303038152906040525b915050919050565b60007f01ffc9a7000000000000000000000000000000000000000000000000000000007bffffffffffffffffffffffffffffffffffffffffffffffffffffffff1916827bffffffffffffffffffffffffffffffffffffffffffffffffffffffff1916149050919050565b60008073ffffffffffffffffffffffffffffffffffffffff1661271483611ece565b73ffffffffffffffffffffffffffffffffffffffff1614159050919050565b50505050565b50505050565b60006127608473ffffffffffffffffffffffffffffffffffffffff16612994565b156128b9578373ffffffffffffffffffffffffffffffffffffffff1663150b7a02612789611a71565b8786866040518563ffffffff1660e01b81526004016127ab949392919061421c565b6020604051808303816000875af19250505080156127e757506040513d601f19601f820116820180604052508101906127e4919061427d565b60015b612869573d8060008114612817576040519150601f19603f3d011682016040523d82523d6000602084013e61281c565b606091505b506000815103612861576040517f08c379a0000000000000000000000000000000000000000000000000000000008152600401612858906141a7565b60405180910390fd5b805181602001fd5b63150b7a0260e01b7bffffffffffffffffffffffffffffffffffffffffffffffffffffffff1916817bffffffffffffffffffffffffffffffffffffffffffffffffffffffff1916149150506128be565b600190505b949350505050565b6060600060016128d5846129b7565b01905060008167ffffffffffffffff8111156128f4576128f361303f565b5b6040519080825280601f01601f1916602001820160405280156129265781602001600182028036833780820191505090505b509050600082602001820190505b600115612989578080600190039150507f3031323334353637383961626364656600000000000000000000000000000000600a86061a8153600a858161297d5761297c6142aa565b5b04945060008503612934575b819350505050919050565b6000808273ffffffffffffffffffffffffffffffffffffffff163b119050919050565b600080600090507a184f03e93ff9f4daa797ed6e38ed64bf6a1f0100000000000000008310612a15577a184f03e93ff9f4daa797ed6e38ed64bf6a1f0100000000000000008381612a0b57612a0a6142aa565b5b0492506040810190505b6d04ee2d6d415b85acef81000000008310612a52576d04ee2d6d415b85acef81000000008381612a4857612a476142aa565b5b0492506020810190505b662386f26fc100008310612a8157662386f26fc100008381612a7757612a766142aa565b5b0492506010810190505b6305f5e1008310612aaa576305f5e1008381612aa057612a9f6142aa565b5b0492506008810190505b6127108310612acf576127108381612ac557612ac46142aa565b5b0492506004810190505b60648310612af25760648381612ae857612ae76142aa565b5b0492506002810190505b600a8310612b01576001810190505b80915050919050565b6040518060a0016040528060008152602001600073ffffffffffffffffffffffffffffffffffffffff168152602001600073ffffffffffffffffffffffffffffffffffffffff168152602001600081526020016000151581525090565b6000604051905090565b600080fd5b600080fd5b60007fffffffff0000000000000000000000000000000000000000000000000000000082169050919050565b612bb081612b7b565b8114612bbb57600080fd5b50565b600081359050612bcd81612ba7565b92915050565b600060208284031215612be957612be8612b71565b5b6000612bf784828501612bbe565b91505092915050565b60008115159050919050565b612c1581612c00565b82525050565b6000602082019050612c306000830184612c0c565b92915050565b600081519050919050565b600082825260208201905092915050565b60005b83811015612c70578082015181840152602081019050612c55565b60008484015250505050565b6000601f19601f8301169050919050565b6000612c9882612c36565b612ca28185612c41565b9350612cb2818560208601612c52565b612cbb81612c7c565b840191505092915050565b60006020820190508181036000830152612ce08184612c8d565b905092915050565b6000819050919050565b612cfb81612ce8565b8114612d0657600080fd5b50565b600081359050612d1881612cf2565b92915050565b600060208284031215612d3457612d33612b71565b5b6000612d4284828501612d09565b91505092915050565b600073ffffffffffffffffffffffffffffffffffffffff82169050919050565b6000612d7682612d4b565b9050919050565b612d8681612d6b565b82525050565b6000602082019050612da16000830184612d7d565b92915050565b612db081612d6b565b8114612dbb57600080fd5b50565b600081359050612dcd81612da7565b92915050565b60008060408385031215612dea57612de9612b71565b5b6000612df885828601612dbe565b9250506020612e0985828601612d09565b9150509250929050565b600080600060608486031215612e2c57612e2b612b71565b5b6000612e3a86828701612dbe565b9350506020612e4b86828701612dbe565b9250506040612e5c86828701612d09565b9150509250925092565b600081519050919050565b600082825260208201905092915050565b6000819050602082019050919050565b612e9b81612ce8565b82525050565b6000612eac82612d4b565b9050919050565b612ebc81612ea1565b82525050565b612ecb81612c00565b82525050565b60a082016000820151612ee76000850182612e92565b506020820151612efa6020850182612eb3565b506040820151612f0d6040850182612eb3565b506060820151612f206060850182612e92565b506080820151612f336080850182612ec2565b50505050565b6000612f458383612ed1565b60a08301905092915050565b6000602082019050919050565b6000612f6982612e66565b612f738185612e71565b9350612f7e83612e82565b8060005b83811015612faf578151612f968882612f39565b9750612fa183612f51565b925050600181019050612f82565b5085935050505092915050565b60006020820190508181036000830152612fd68184612f5e565b905092915050565b612fe781612ce8565b82525050565b60006020820190506130026000830184612fde565b92915050565b60006020828403121561301e5761301d612b71565b5b600061302c84828501612dbe565b91505092915050565b600080fd5b600080fd5b7f4e487b7100000000000000000000000000000000000000000000000000000000600052604160045260246000fd5b61307782612c7c565b810181811067ffffffffffffffff821117156130965761309561303f565b5b80604052505050565b60006130a9612b67565b90506130b5828261306e565b919050565b600067ffffffffffffffff8211156130d5576130d461303f565b5b6130de82612c7c565b9050602081019050919050565b82818337600083830152505050565b600061310d613108846130ba565b61309f565b9050828152602081018484840111156131295761312861303a565b5b6131348482856130eb565b509392505050565b600082601f83011261315157613150613035565b5b81356131618482602086016130fa565b91505092915050565b6000806040838503121561318157613180612b71565b5b600083013567ffffffffffffffff81111561319f5761319e612b76565b5b6131ab8582860161313c565b92505060206131bc85828601612d09565b9150509250929050565b600080604083850312156131dd576131dc612b71565b5b60006131eb85828601612d09565b92505060206131fc85828601612d09565b9150509250929050565b61320f81612c00565b811461321a57600080fd5b50565b60008135905061322c81613206565b92915050565b6000806040838503121561324957613248612b71565b5b600061325785828601612dbe565b92505060206132688582860161321d565b9150509250929050565b600067ffffffffffffffff82111561328d5761328c61303f565b5b61329682612c7c565b9050602081019050919050565b60006132b66132b184613272565b61309f565b9050828152602081018484840111156132d2576132d161303a565b5b6132dd8482856130eb565b509392505050565b600082601f8301126132fa576132f9613035565b5b813561330a8482602086016132a3565b91505092915050565b6000806000806080858703121561332d5761332c612b71565b5b600061333b87828801612dbe565b945050602061334c87828801612dbe565b935050604061335d87828801612d09565b925050606085013567ffffffffffffffff81111561337e5761337d612b76565b5b61338a878288016132e5565b91505092959194509250565b600080604083850312156133ad576133ac612b71565b5b60006133bb85828601612dbe565b92505060206133cc85828601612dbe565b9150509250929050565b7f4e487b7100000000000000000000000000000000000000000000000000000000600052602260045260246000fd5b6000600282049050600182168061341d57607f821691505b6020821081036134305761342f6133d6565b5b50919050565b7f4552433732313a20617070726f76616c20746f2063757272656e74206f776e6560008201527f7200000000000000000000000000000000000000000000000000000000000000602082015250565b6000613492602183612c41565b915061349d82613436565b604082019050919050565b600060208201905081810360008301526134c181613485565b9050919050565b7f4552433732313a20617070726f76652063616c6c6572206973206e6f7420746f60008201527f6b656e206f776e6572206f7220617070726f76656420666f7220616c6c000000602082015250565b6000613524603d83612c41565b915061352f826134c8565b604082019050919050565b6000602082019050818103600083015261355381613517565b9050919050565b7f4552433732313a2063616c6c6572206973206e6f7420746f6b656e206f776e6560008201527f72206f7220617070726f76656400000000000000000000000000000000000000602082015250565b60006135b6602d83612c41565b91506135c18261355a565b604082019050919050565b600060208201905081810360008301526135e5816135a9565b9050919050565b7f4e487b7100000000000000000000000000000000000000000000000000000000600052601160045260246000fd5b600061362682612ce8565b915061363183612ce8565b9250828201905080821115613649576136486135ec565b5b92915050565b600061365a82612ce8565b91507fffffffffffffffffffffffffffffffffffffffffffffffffffffffffffffffff820361368c5761368b6135ec565b5b600182019050919050565b7f4e487b7100000000000000000000000000000000000000000000000000000000600052603260045260246000fd5b7f4552433732313a20696e76616c696420746f6b656e2049440000000000000000600082015250565b60006136fc601883612c41565b9150613707826136c6565b602082019050919050565b6000602082019050818103600083015261372b816136ef565b9050919050565b7f4552433732313a2061646472657373207a65726f206973206e6f74206120766160008201527f6c6964206f776e65720000000000000000000000000000000000000000000000602082015250565b600061378e602983612c41565b915061379982613732565b604082019050919050565b600060208201905081810360008301526137bd81613781565b9050919050565b7f4f6e6c79206974656d206f776e65722063616e20706572666f726d207468697360008201527f206f7065726174696f6e00000000000000000000000000000000000000000000602082015250565b6000613820602a83612c41565b915061382b826137c4565b604082019050919050565b6000602082019050818103600083015261384f81613813565b9050919050565b7f5072696365206d75737420626520657175616c20746f206c697374696e67207060008201527f7269636500000000000000000000000000000000000000000000000000000000602082015250565b60006138b2602483612c41565b91506138bd82613856565b604082019050919050565b600060208201905081810360008301526138e1816138a5565b9050919050565b60006138f382612ce8565b91506138fe83612ce8565b9250828203905081811115613916576139156135ec565b5b92915050565b7f4f6e6c79206f776e6572206f6620746865206d61726b6574706c61636565206360008201527f616e206368616e676520746865204c697374696e672050726963650000000000602082015250565b6000613978603b83612c41565b91506139838261391c565b604082019050919050565b600060208201905081810360008301526139a78161396b565b9050919050565b7f506c65617365207375626d6974207468652061736b696e67207072696365206960008201527f6e206f7264657220746f20636f6d706c65746520746865207075726368617365602082015250565b6000613a0a604083612c41565b9150613a15826139ae565b604082019050919050565b60006020820190508181036000830152613a39816139fd565b9050919050565b600081905092915050565b6000613a5682612c36565b613a608185613a40565b9350613a70818560208601612c52565b80840191505092915050565b6000613a888285613a4b565b9150613a948284613a4b565b91508190509392505050565b7f4552433732313a207472616e736665722066726f6d20696e636f72726563742060008201527f6f776e6572000000000000000000000000000000000000000000000000000000602082015250565b6000613afc602583612c41565b9150613b0782613aa0565b604082019050919050565b60006020820190508181036000830152613b2b81613aef565b9050919050565b7f4552433732313a207472616e7366657220746f20746865207a65726f2061646460008201527f7265737300000000000000000000000000000000000000000000000000000000602082015250565b6000613b8e602483612c41565b9150613b9982613b32565b604082019050919050565b60006020820190508181036000830152613bbd81613b81565b9050919050565b7f4552433732313a206d696e7420746f20746865207a65726f2061646472657373600082015250565b6000613bfa602083612c41565b9150613c0582613bc4565b602082019050919050565b60006020820190508181036000830152613c2981613bed565b9050919050565b7f4552433732313a20746f6b656e20616c7265616479206d696e74656400000000600082015250565b6000613c66601c83612c41565b9150613c7182613c30565b602082019050919050565b60006020820190508181036000830152613c9581613c59565b9050919050565b7f45524337323155524953746f726167653a2055524920736574206f66206e6f6e60008201527f6578697374656e7420746f6b656e000000000000000000000000000000000000602082015250565b6000613cf8602e83612c41565b9150613d0382613c9c565b604082019050919050565b60006020820190508181036000830152613d2781613ceb565b9050919050565b60008190508160005260206000209050919050565b60006020601f8301049050919050565b600082821b905092915050565b600060088302613d907fffffffffffffffffffffffffffffffffffffffffffffffffffffffffffffffff82613d53565b613d9a8683613d53565b95508019841693508086168417925050509392505050565b6000819050919050565b6000613dd7613dd2613dcd84612ce8565b613db2565b612ce8565b9050919050565b6000819050919050565b613df183613dbc565b613e05613dfd82613dde565b848454613d60565b825550505050565b600090565b613e1a613e0d565b613e25818484613de8565b505050565b5b81811015613e4957613e3e600082613e12565b600181019050613e2b565b5050565b601f821115613e8e57613e5f81613d2e565b613e6884613d43565b81016020851015613e77578190505b613e8b613e8385613d43565b830182613e2a565b50505b505050565b600082821c905092915050565b6000613eb160001984600802613e93565b1980831691505092915050565b6000613eca8383613ea0565b9150826002028217905092915050565b613ee382612c36565b67ffffffffffffffff811115613efc57613efb61303f565b5b613f068254613405565b613f11828285613e4d565b600060209050601f831160018114613f445760008415613f32578287015190505b613f3c8582613ebe565b865550613fa4565b601f198416613f5286613d2e565b60005b82811015613f7a57848901518255600182019150602085019450602081019050613f55565b86831015613f975784890151613f93601f891682613ea0565b8355505b6001600288020188555050505b505050505050565b7f5072696365206d7573742061746c656173742062652031000000000000000000600082015250565b6000613fe2601783612c41565b9150613fed82613fac565b602082019050919050565b6000602082019050818103600083015261401181613fd5565b9050919050565b600060808201905061402d6000830187612d7d565b61403a6020830186612d7d565b6140476040830185612fde565b6140546060830184612c0c565b95945050505050565b7f436f756e7465723a2064656372656d656e74206f766572666c6f770000000000600082015250565b6000614093601b83612c41565b915061409e8261405d565b602082019050919050565b600060208201905081810360008301526140c281614086565b9050919050565b7f4552433732313a20617070726f766520746f2063616c6c657200000000000000600082015250565b60006140ff601983612c41565b915061410a826140c9565b602082019050919050565b6000602082019050818103600083015261412e816140f2565b9050919050565b7f4552433732313a207472616e7366657220746f206e6f6e20455243373231526560008201527f63656976657220696d706c656d656e7465720000000000000000000000000000602082015250565b6000614191603283612c41565b915061419c82614135565b604082019050919050565b600060208201905081810360008301526141c081614184565b9050919050565b600081519050919050565b600082825260208201905092915050565b60006141ee826141c7565b6141f881856141d2565b9350614208818560208601612c52565b61421181612c7c565b840191505092915050565b60006080820190506142316000830187612d7d565b61423e6020830186612d7d565b61424b6040830185612fde565b818103606083015261425d81846141e3565b905095945050505050565b60008151905061427781612ba7565b92915050565b60006020828403121561429357614292612b71565b5b60006142a184828501614268565b91505092915050565b7f4e487b7100000000000000000000000000000000000000000000000000000000600052601260045260246000fdfea264697066735822122077284bf5c4907b571a2e7a0641c7a20d1374f30fc1ee3a1614dd70e7d5d7aeb964736f6c63430008130033",
  "linkReferences": {},
  "deployedLinkReferences": {}
}